{
	"data": {
		"bytecode": {
			"linkReferences": {},
			"object": "608060405260325f553480156012575f80fd5b50610145806100205f395ff3fe60806040526004361061001d575f3560e01c8063b60d428814610021575b5f80fd5b61002961002b565b005b5f5434101561006f576040517f08c379a0000000000000000000000000000000000000000000000000000000008152600401610066906100f1565b60405180910390fd5b565b5f82825260208201905092915050565b7f41746c65617374203530205553442061726520726571756972656420666f72205f8201527f746865207472616e73616374696f6e2e00000000000000000000000000000000602082015250565b5f6100db603083610071565b91506100e682610081565b604082019050919050565b5f6020820190508181035f830152610108816100cf565b905091905056fea2646970667358221220ee7c3cf6428604ba17c232f1d0a365846e4273df1d9ffd85d44812c0a22423e664736f6c634300081a0033",
			"opcodes": "PUSH1 0x80 PUSH1 0x40 MSTORE PUSH1 0x32 PUSH0 SSTORE CALLVALUE DUP1 ISZERO PUSH1 0x12 JUMPI PUSH0 DUP1 REVERT JUMPDEST POP PUSH2 0x145 DUP1 PUSH2 0x20 PUSH0 CODECOPY PUSH0 RETURN INVALID PUSH1 0x80 PUSH1 0x40 MSTORE PUSH1 0x4 CALLDATASIZE LT PUSH2 0x1D JUMPI PUSH0 CALLDATALOAD PUSH1 0xE0 SHR DUP1 PUSH4 0xB60D4288 EQ PUSH2 0x21 JUMPI JUMPDEST PUSH0 DUP1 REVERT JUMPDEST PUSH2 0x29 PUSH2 0x2B JUMP JUMPDEST STOP JUMPDEST PUSH0 SLOAD CALLVALUE LT ISZERO PUSH2 0x6F JUMPI PUSH1 0x40 MLOAD PUSH32 0x8C379A000000000000000000000000000000000000000000000000000000000 DUP2 MSTORE PUSH1 0x4 ADD PUSH2 0x66 SWAP1 PUSH2 0xF1 JUMP JUMPDEST PUSH1 0x40 MLOAD DUP1 SWAP2 SUB SWAP1 REVERT JUMPDEST JUMP JUMPDEST PUSH0 DUP3 DUP3 MSTORE PUSH1 0x20 DUP3 ADD SWAP1 POP SWAP3 SWAP2 POP POP JUMP JUMPDEST PUSH32 0x41746C65617374203530205553442061726520726571756972656420666F7220 PUSH0 DUP3 ADD MSTORE PUSH32 0x746865207472616E73616374696F6E2E00000000000000000000000000000000 PUSH1 0x20 DUP3 ADD MSTORE POP JUMP JUMPDEST PUSH0 PUSH2 0xDB PUSH1 0x30 DUP4 PUSH2 0x71 JUMP JUMPDEST SWAP2 POP PUSH2 0xE6 DUP3 PUSH2 0x81 JUMP JUMPDEST PUSH1 0x40 DUP3 ADD SWAP1 POP SWAP2 SWAP1 POP JUMP JUMPDEST PUSH0 PUSH1 0x20 DUP3 ADD SWAP1 POP DUP2 DUP2 SUB PUSH0 DUP4 ADD MSTORE PUSH2 0x108 DUP2 PUSH2 0xCF JUMP JUMPDEST SWAP1 POP SWAP2 SWAP1 POP JUMP INVALID LOG2 PUSH5 0x6970667358 0x22 SLT KECCAK256 0xEE PUSH29 0x3CF6428604BA17C232F1D0A365846E4273DF1D9FFD85D44812C0A22423 0xE6 PUSH5 0x736F6C6343 STOP ADDMOD BYTE STOP CALLER "
		},
		"gasEstimates": {
			"creation": {
				"codeDepositCost": "65000",
				"executionCost": "22220",
				"totalCost": "87220"
			},
			"external": {
				"fund()": "2523"
			}
		},
		"methodIdentifiers": {
			"fund()": "b60d4288"
		}
	},
	"abi": [
		{
			"inputs": [],
			"name": "fund",
			"outputs": [],
			"stateMutability": "payable",
			"type": "function"
		}
	]
}